{
  "_format": "hh-sol-artifact-1",
  "contractName": "BuyMeAGem",
  "sourceName": "contracts/BuyMeAGem.sol",
  "abi": [
    {
      "inputs": [],
      "stateMutability": "nonpayable",
      "type": "constructor"
    },
    {
      "anonymous": false,
      "inputs": [
        {
          "indexed": true,
          "internalType": "address",
          "name": "from",
          "type": "address"
        },
        {
          "indexed": false,
          "internalType": "uint256",
          "name": "timestamp",
          "type": "uint256"
        },
        {
          "indexed": false,
          "internalType": "string",
          "name": "name",
          "type": "string"
        },
        {
          "indexed": false,
          "internalType": "string",
          "name": "message",
          "type": "string"
        }
      ],
      "name": "NewMemo",
      "type": "event"
    },
    {
      "inputs": [
        {
          "internalType": "string",
          "name": "_name",
          "type": "string"
        },
        {
          "internalType": "string",
          "name": "_message",
          "type": "string"
        }
      ],
      "name": "buyGem",
      "outputs": [],
      "stateMutability": "payable",
      "type": "function"
    },
    {
      "inputs": [],
      "name": "getMemos",
      "outputs": [],
      "stateMutability": "nonpayable",
      "type": "function"
    },
    {
      "inputs": [],
      "name": "withdrawTips",
      "outputs": [],
      "stateMutability": "nonpayable",
      "type": "function"
    }
  ],
  "bytecode": "0x608060405234801561001057600080fd5b5033600160006101000a81548173ffffffffffffffffffffffffffffffffffffffff021916908373ffffffffffffffffffffffffffffffffffffffff160217905550610830806100616000396000f3fe6080604052600436106100345760003560e01c8063368df32b146100395780633aaa74b214610055578063865c51721461006c575b600080fd5b610053600480360381019061004e919061035b565b610083565b005b34801561006157600080fd5b5061006a6101fd565b005b34801561007857600080fd5b506100816101ff565b005b600034116100c6576040517f08c379a00000000000000000000000000000000000000000000000000000000081526004016100bd90610430565b60405180910390fd5b600060405180608001604052803373ffffffffffffffffffffffffffffffffffffffff16815260200142815260200184815260200183815250908060018154018082558091505060019003906000526020600020906004020160009091909190915060008201518160000160006101000a81548173ffffffffffffffffffffffffffffffffffffffff021916908373ffffffffffffffffffffffffffffffffffffffff16021790555060208201518160010155604082015181600201908161018e9190610671565b5060608201518160030190816101a49190610671565b5050503373ffffffffffffffffffffffffffffffffffffffff167fc56140e05f516509ae28110e0f72e17558a7561630dad2647c3ae87d986e365c4284846040516101f1939291906107b5565b60405180910390a25050565b565b565b6000604051905090565b600080fd5b600080fd5b600080fd5b600080fd5b6000601f19601f8301169050919050565b7f4e487b7100000000000000000000000000000000000000000000000000000000600052604160045260246000fd5b6102688261021f565b810181811067ffffffffffffffff8211171561028757610286610230565b5b80604052505050565b600061029a610201565b90506102a6828261025f565b919050565b600067ffffffffffffffff8211156102c6576102c5610230565b5b6102cf8261021f565b9050602081019050919050565b82818337600083830152505050565b60006102fe6102f9846102ab565b610290565b90508281526020810184848401111561031a5761031961021a565b5b6103258482856102dc565b509392505050565b600082601f83011261034257610341610215565b5b81356103528482602086016102eb565b91505092915050565b600080604083850312156103725761037161020b565b5b600083013567ffffffffffffffff8111156103905761038f610210565b5b61039c8582860161032d565b925050602083013567ffffffffffffffff8111156103bd576103bc610210565b5b6103c98582860161032d565b9150509250929050565b600082825260208201905092915050565b7f43616e2774206275792067656d20776974682030206574680000000000000000600082015250565b600061041a6018836103d3565b9150610425826103e4565b602082019050919050565b600060208201905081810360008301526104498161040d565b9050919050565b600081519050919050565b7f4e487b7100000000000000000000000000000000000000000000000000000000600052602260045260246000fd5b600060028204905060018216806104a257607f821691505b6020821081036104b5576104b461045b565b5b50919050565b60008190508160005260206000209050919050565b60006020601f8301049050919050565b600082821b905092915050565b60006008830261051d7fffffffffffffffffffffffffffffffffffffffffffffffffffffffffffffffff826104e0565b61052786836104e0565b95508019841693508086168417925050509392505050565b6000819050919050565b6000819050919050565b600061056e6105696105648461053f565b610549565b61053f565b9050919050565b6000819050919050565b61058883610553565b61059c61059482610575565b8484546104ed565b825550505050565b600090565b6105b16105a4565b6105bc81848461057f565b505050565b5b818110156105e0576105d56000826105a9565b6001810190506105c2565b5050565b601f821115610625576105f6816104bb565b6105ff846104d0565b8101602085101561060e578190505b61062261061a856104d0565b8301826105c1565b50505b505050565b600082821c905092915050565b60006106486000198460080261062a565b1980831691505092915050565b60006106618383610637565b9150826002028217905092915050565b61067a82610450565b67ffffffffffffffff81111561069357610692610230565b5b61069d825461048a565b6106a88282856105e4565b600060209050601f8311600181146106db57600084156106c9578287015190505b6106d38582610655565b86555061073b565b601f1984166106e9866104bb565b60005b82811015610711578489015182556001820191506020850194506020810190506106ec565b8683101561072e578489015161072a601f891682610637565b8355505b6001600288020188555050505b505050505050565b61074c8161053f565b82525050565b60005b83811015610770578082015181840152602081019050610755565b60008484015250505050565b600061078782610450565b61079181856103d3565b93506107a1818560208601610752565b6107aa8161021f565b840191505092915050565b60006060820190506107ca6000830186610743565b81810360208301526107dc818561077c565b905081810360408301526107f0818461077c565b905094935050505056fea2646970667358221220065da0bc0ad6d6c7cc03588b4f31cfedb2d6df6b48cafbaa3dcd2cdff78c811464736f6c63430008110033",
  "linkReferences": {},
  "deployedLinkReferences": {}
}